:020000020000FC
:10000000A0E0B1E00AE01BE02CE03DE019D0A0E068
:10001000B1E01BD0A0E0B1E00AE01BE02CE03DE045
:100020000FD0A4E0B1E000E011E022E033E008D01E
:10003000A0E0B1E0C4E0D1E0E8E0F1E016D0E0CF2C
:100040000D931D932D933C9308950F931F932F931E
:100050002FB72F9300E014E00D931A95E9F72F9135
:100060002FBF2F911F910F9108950F921F920F9301
:100070001F931FB71F9304E088940D9019900108F7
:1000800001920A95D1F71F911FBF1F910F911F90E9
:040090000F90089530
:00000001FF
